:10000000E04300203D8A000001CA011001CA01102E
:1000100001CA011001CA011001CA011001CA011070
:1000200001CA011001CA011001CA011001CA011060
:0C00300001CA011001CA01103FCA0110F2
:100100003C0000000000000000000000340100007E
:1001100000000000000000000100000000000000DE
:1001200000000000000000000000000001000000CE
:0C013000000000000800000000000000BB
:10013C003400000000000000000000006801000016
:10014C0000000000000000000100000000000000A2
:10015C00010000000000000000000000080000008A
:04016C00000000008F
:1001700030000000000000000000000098010000B6
:10018000040000000000000001000000FFFFFFFF6E
:10019000FF00000001000000080000000000000057
:1001A0002C0000000000000000000000C40100005E
:1001B000040000000000000001000000FFFFFFFF3E
:0C01C000FFFFFFFF08000000000000002F
:1001CC0034050000E401000099A1011095A701106D
:1001DC00A5C2011009B2011045B8011000000000C1
:0801EC00000000002E000000DD
:1001F40028000000000000000000000014020000BD
:100204000000000000000000FFFFFFFF00000000EE
:080214000800000000000000DA
:10021C00300500003002000069C201106DC10110F0
:10022C001FC2011095BA0110000000000000000070
:04023C00300000008E
:10024000300500005402000075C20110A9B601106B
:100250009DBF011049B60110000000000000000021
:040260003100000069
:1002640024000000000000000000000080020000E4
:100274000000000000000000000000000800000072
:040284000000000076
:10028800240000000000000000000000A40200009C
:10029800000000000000000000000000080000004E
:0402A8000000000052
:1002AC00240000000000000000000000C802000054
:1002BC000000000001000000000000000800000029
:0402CC00000000002E
:1002D00000000000181A00200400000000000000C8
:1002E000000000002000000070010000300000004D
:1002F0001C020000201A0020040000000000000082
:10030000000000000C000000300400001800000095
:1003100040020000281A0020040000000000000035
:100320000000000024000000480400001800000045
:1003300000000000301A002004000000000000004F
:100340000000000010000000A00100002C000000D0
:10035000CC010000381A002004000000000000005A
:1003600000000000200000006402000024000000E3
:10037000FFFFFFFF401A0020040000000000000003
:100380000000000028000000880200002400000097
:10039000FFFFFFFF481A00200400000000000000DB
:1003A00000000000580000003C0100003400000084
:1003B000FFFFFFFF501A00200400000000000000B3
:1003C00000000000100000006004000018000000A1
:1003D000FFFFFFFF581A002004000000000000008B
:1003E000000000001C000000AC020000240000001F
:1003F000FFFFFFFF601A0020040000000000000063
:100400000000000038000000F40100002800000097
:10041000FFFFFFFF681A002004000000000000003A
:100420000000000054000000000100003C0000003B
:100430001800000000000000000000004004000060
:080440000800000000000000AC
:100448001800000000000000000000005804000030
:08045800080000000000000094
:100460001800000000000000000000007004000000
:0804700008000000000000007C
:0804780001000000AC8A000045
:040484000100000073
:0404880000000C0064
:04048C0000000D005F
:040490003200000036
:040494000200000062
:040498004C180020DC
:04049C00000200005A
:0404A0000000000058
:0404A40001CA011078
:0404A8000000000050
:0404AC00000000004C
:0404B0000800000040
:0404B4000000200024
:0404B800E017002029
:0404BC00010000003B
:0404C0009819002067
:0404C400080000002C
:0404C8000000000030
:0404CC00000000002C
:0404D0000000000028
:0404D4000000000024
:0404D8000000000020
:0404DC00010000001B
:0404E0007C18002064
:0404E400060000000E
:0404E800010000000F
:0404EC000C170020C9
:0404F0000000000008
:0404F4000000000004
:0404F80000020000FE
:0404FC0000000000FC
:020502002A00CD
:020504000100F4
:020506002500CE
:020508003000C1
:02050A003100BE
:02050C002E00BF
:02050E000100EA
:0105100001E9
:0805140004000000688A0000E9
:08051C000000000000000000D7
:0405240000000100D2
:0405280000000300CC
:04052C0087C401106F
:04053000380500008A
:040534003805000086
:0405380000000000BF
:04053C00800000003B
:040540008000000037
:0405440000000000B3
:0405480098190020DE
:04054C002F3100004B
:040550002000000087
:04055400548A0000C5
:04055800C887000050
:04055C000DC30110BA
:04056000CD270000A3
:04056400CF2700009D
:0405680099C801101D
:04056C009BC8011017
:040570000000000087
:040574004E1A00001B
:040578007886000081
:04057C009086000065
:040580006086000091
:0205840008006D
:0205860009006A
:02058800010070
:02058A0000006F
:01058C00016D
:040590000000000067
:040594000000000063
:04059800000000005F
:04059C00000000005B
:0405A00069260000C8
:0405A400C926000064
:0405A80049250000E1
:0405AC00F326000032
:0405B000B125000071
:0405B40065250000B9
:0405B800F125000029
:0405BC0035270000DF
:0405C000AD3000005A
:0405C400B33200004E
:0405C800B732000046
:0405CC000800000023
:0405D0002400000003
:0405D400180000000B
:0405D80028000000F7
:0405DC0020000000FB
:0405E0003C000000DB
:0405E4000C00000007
:0405E80034000000DB
:1005EC00DFF800F0F5C00110DFF800F049C1011090
:1005FC00DFF800F019C20110DFF800F049BA011061
:10060C00DFF800F0ADB50110DFF800F0D9C1011032
:10061C00DFF800F019AE0110DFF800F0E5C10110B1
:10062C00DFF800F041AC0110DFF800F0CDA00110B4
:10063C00DFF800F085C20110DFF800F081C2011074
:10064C00DFF800F055C10110DFF800F043C20110D3
:10065C00DFF800F079AB0110DFF800F0D9B601102B
:10066C00DFF800F085C10110DFF800F0EDB30110E8
:10067C00DFF800F025C20110DFF800F0C1C2011054
:10068C00DFF800F0E3BF0110DFF800F0C1C101108A
:10069C0000B581B0FFF7A4FFADF80000FFF7A4FF91
:1006AC00ADF80200009801B000BD01B5BDF8020024
:1006BC00FFF79EFFBDF8000001B05DF804EBFFF7FB
:1006CC009BBFF0B500240025061D81B016F0030079
:1006DC001CBF311D0E1AFFF783FFADF80000B6B238
:1006EC00FFF782FFADF80200112EDFF8C80B00995E
:1006FC00C0F8E41AB4BFD0F8E87AD0F8EC7A3A88AB
:10070C00130403D582F40042002519E0A5B1238817
:10071C0039880B4423809BB2B34211D327461A4627
:10072C00B7B1921B92B2042AA7BFF25346F4004110
:10073C00398841F4004109E0B242F1DA01253C4626
:10074C00D7193A88002ADBD1002701E027F8041BCF
:10075C00D0F8E40A0090BDF80200FFF749FFBDF89D
:10076C000000FFF749FF384601B0F0BD70B582B00C
:10077C000646FFF735FFADF80400FFF735FFADF87F
:10078C0006000024DFF82C5BD5F8B80AF8B18642D5
:10079C0011D101980090BDF80200FFF729FFBDF8B8
:1007AC000000FFF729FF04EB440005EB800000F686
:1007BC00B82002B070BDD5F8C40A012438B1864205
:1007CC00E7D0D5F8D00A022408B18642E1D00198CE
:1007DC000090BDF80200FFF70BFFBDF80000FFF71B
:1007EC000BFF002002B070BD70B582B00446FFF75D
:1007FC00F7FEADF80400FFF7F7FEADF80600002594
:10080C00DFF8B06AD6F8B80AE8B905EB450006EB94
:10081C00800000F6B8250020A8602C600022002182
:10082C00FFF7EEFE686008B901F008F90198009036
:10083C00BDF80200FFF7DCFEBDF80000FFF7DCFEA0
:10084C00284602B070BD844211D101980090BDF8C9
:10085C000200FFF7CDFEBDF80000FFF7CDFE05EB63
:10086C00450006EB800000F6B82002B070BDD6F84B
:10087C00C40A01250028C8D08442E6D0D6F8D00A94
:10088C0002250028C1D08442DFD001980090BDF829
:10089C000200FFF7ADFEBDF80000FFF7ADFE002033
:1008AC0002B070BD30B583B00446FFF799FEADF8C9
:1008BC0004000025FFF798FEADF80600DFF8F409F8
:1008CC00B0F8701A61B38C420CD101980090BDF84D
:1008DC000200FFF78DFEBDF80000FFF78DFE2846E5
:1008EC0003B030BDB0F87C1A0125C9B18C42ECD0F4
:1008FC00B0F8881A022599B18C42E6D0B0F8941A57
:10090C00032569B18C42E0D0B0F8A01A042539B1A6
:10091C008C42DAD0B0F8AC0A052508B18442D4D0A8
:10092C0001980090BDF80200FFF762FEBDF80000D0
:10093C00FFF762FEFF2003B030BD10B504462088DF
:10094C00FFF7B0FFFF2802D14FF0FF3010BDDFF8EA
:10095C00E81C00EB400201EB820000F52760816887
:10096C00080002D16FF0010010BD2046BDE8104018
:10097C00084702460FF20400104700004709000028
:10098C009D060000B7060000F0B5DFF8284981B0DD
:10099C000020C4F8B80AC4F8C00AC4F8C40AC4F8E1
:1009AC00CC0AC4F8D00AC4F8D80AA4F8700AA4F87F
:1009BC007C0AA4F8880AA4F8940AA4F8A00AA4F85B
:1009CC00AC0A00250820A4F8700A0026DFF8340DC4
:1009DC00C4F8780A0020A4F86C0AE820208040F6BD
:1009EC008410A4F8E80004F1E800C4F8E80AFFF762
:1009FC00F7FDADF80000FFF7F7FDADF80200009829
:100A0C00D4F8E87AC4F8E40A3888010403D580F4F1
:100A1C000040002619E0A6B129883A88511829808F
:100A2C0089B2042911D32F460846B7B1001F80B2F2
:100A3C000428A7BFB88048F20400388840F400406E
:100A4C0009E00428F1DA01263D46C7193888002848
:100A5C00DBD1002701E027F8040BD4F8E40A00905E
:100A6C00BDF80200FFF7C4FDBDF80000FFF7C4FDA0
:100A7C00C4F8EC7AC4F8E84A01B0F0BDF0B593B014
:100A8C00FFF7AEFD044608233C22002103A8FFF724
:100A9C00BBFD0520099000224FF448700B9003A970
:100AAC004FF201000790DFF8600C0890DFF85C0C47
:100ABC00FFF7AEFD050024D0FFF792FDADF808005E
:100ACC00FFF792FDADF80A00FFF78AFDADF80400C0
:100ADC00FFF78AFDADF806000026DFF85C7BD7F83F
:100AEC00B80AD8B906EB460007EB800000F6B8262A
:100AFC000020B060356000220021FFF781FD70609E
:100B0C0008B900F09BFF01980090BDF80200FFF7B8
:100B1C006FFDBDF80000FFF76FFD2AE0854218D08D
:100B2C00D7F8C40A01260028DCD0854211D0D7F8AA
:100B3C00D00A02260028D5D085420AD00198009010
:100B4C00BDF80200FFF754FDBDF80000FFF754FD9F
:100B5C00D7E701980090BDF80200FFF749FDBDF8FA
:100B6C000000FFF749FD06EB460007EB800000F69E
:100B7C00B826002EC5D002980090BDF80200FFF7F1
:100B8C0037FDBDF80000FFF737FD2046FFF734FDB9
:100B9C0013B0F0BD30B583B00446FFF73DFDFFF751
:100BAC0023FE0546FFF71CFDADF80400FFF71CFD06
:100BBC00DFF8842AB2F8703AADF806000020A1885C
:100BCC00D3B900EB400302EB8302A2F8701AC2F80F
:100BDC00745AA168C2F8781AA081686820610198DB
:100BEC000090BDF80200FFF703FDBDF80000FFF711
:100BFC0003FD002003B030BD99420DD10198009047
:100C0C00BDF80200FFF7F4FCBDF80000FFF7F4FCA0
:100C1C006FF0020003B030BDB2F87C3A0120002B1B
:100C2C00CFD09942EAD0B2F8883A0220002BC8D033
:100C3C009942E3D0B2F8943A0320002BC1D09942E8
:100C4C00DCD0B2F8A03A0420002BBAD09942D5D00F
:100C5C00B2F8AC3A0520002BB3D09942CED000F0BC
:100C6C00EDFE00BF30B583B00446FFF7D5FCFFF7AF
:100C7C00BBFD050043D0FFF7B3FCADF80000FFF758
:100C8C00B3FCDFF8B419B1F8702AADF802000020FB
:100C9C00E2B900EB400201EB82014FF6F872A1F8C9
:100CAC00702AC1F8745A0022C1F8782AA0806868AA
:100CBC00A06000980190BDF80600FFF799FCBDF804
:100CCC000400FFF799FC002003B030BDB1F87C2A7A
:100CDC000120002A1EBF0220B1F8882A002AD8D091
:100CEC00B1F8942A0320002A1EBF0420B1F8A02AD0
:100CFC00002A1EBF0520B1F8AC2A002AC9D000F08A
:100D0C009DFE00BF10B5044660680C3080B2FFF742
:100D1C00D8FC10B96FF0030010BD6168018100218F
:100D2C000160FF2181720C30A060002010BD10B555
:100D3C0082B04068A0F10C04FFF752FCADF8000043
:100D4C00FFF752FCADF802000099DFF8EC08C0F890
:100D5C00E41A211F0A885204520C0A80D0F8E82A9F
:100D6C00914238BFC0F8E81AD0F8E40A0090BDF8F8
:100D7C000200FFF73DFCBDF80000FFF73DFC002032
:100D8C0002B010BD80B29CE410B50446606880B21D
:100D9C00FFF797FCA06000280CBF6FF00300002049
:100DAC0010BD10B582B04468FFF71AFCADF8000016
:100DBC00FFF71AFCADF802000099DFF87C08C0F8C8
:100DCC00E41A211F0A885204520C0A80D0F8E82A2F
:100DDC00914238BFC0F8E81AD0F8E40A0090BDF888
:100DEC000200FFF705FCBDF80000FFF705FC002032
:100DFC0002B010BD00000000F0B5044683B0E068FE
:100E0C00A0F10C06E0880628BCBFA08806281CDAD6
:100E1C00FFF7E6FBADF80400FFF7E6FBADF80600C4
:100E2C00DFF81458E08800EB400105EB8100D0F8A6
:100E3C00740A002801980090BDF8020009D1FFF750
:100E4C00D7FBBDF80000FFF7D7FB6FF0020003B033
:100E5C00F0BDFFF7CDFBBDF80000FFF7CDFBA08880
:100E6C003071E0887071207AB071E088E66800EB30
:100E7C00400105EB8100D0F8740A00F10807FFF778
:100E8C00AFFBADF80000FFF7AFFBADF802000020A0
:100E9C0046F80C0C386808B93E6018E050F80C1C89
:100EAC0099B100BF50F80C0C50F80C1C69B10846F5
:100EBC0050F80C1C49B1084650F80C1C00291EBFF8
:100ECC00084650F80C1C0029ECD140F80C6C00982A
:100EDC000190BDF80600FFF78BFBBDF80400FFF78F
:100EEC008BFBE08800EB400105EB8100D0F8740A25
:100EFC004068FFF795FB002003B0F0BD70B582B0E1
:100F0C000446FFF789FBFFF731FC18B96FF00400BA
:100F1C0002B070BD00F10806FFF762FBADF80000EF
:100F2C000025FFF761FBADF80200306840B10546C3
:100F3C00A5F10C000168316000210160FF21817274
:100F4C0000980190BDF80600FFF752FBBDF80400B5
:100F5C00FFF752FBA560A5F10C0115B9022002B0F8
:100F6C0070BD0879A0804879E08002B0002070BD87
:100F7C00811D8088062810DADFF8BC2600EB4003C0
:100F8C0002EB8300B0F8700A00281CBF4FF6F87211
:100F9C00904202D00880002070474FF0FF3070471D
:100FAC0010B50446E088FFF77DFCFF2802D14FF016
:100FBC00FF3010BDE0802046BDE810401CE710B5A6
:100FCC0082B00446FFF79AFF88B9A188DFF868263B
:100FDC0006290EDA01EB410302EB8301B1F8701A1A
:100FEC0000291CBF4FF6F873994202D0A18002B0C1
:100FFC0010BDA06801900821ADF8001068460321CF
:10100C00ADF80210D2F8F01A88476FF0050002B064
:10101C0010BD30B581B00546FFF7FEFAFFF7A6FB11
:10102C00044600F03BFD002818BF012800D01CB975
:10103C006FF0040001B030BD686808B9002119E0F8
:10104C0010F1010F08BF4FF0FF3113D0DFF8242946
:10105C0012684FF47A71A1FB0001002301F0B2FB7E
:10106C00002902D8B0F1004F03D36FF0020001B099
:10107C0030BD01466068FFF7D7FA401E8041C00FB3
:10108C0001B030BD00B581B04068FFF7C9FA00204F
:10109C0001B000BD00F0D2FC00BF00B581B04068CB
:1010AC00FFF7C6FA002001B000BD00B581B0406862
:1010BC00FFF7C2FA002001B000BD00B581B0FFF708
:1010CC00BFFAFFF7C1FA002001B000BD00B581B036
:1010DC00FFF786FAFFF788FA002001B000BD10B5C3
:1010EC008CB0044608232C220021684601F030FB0A
:1010FC00E02008900023A16860686A46FFF7A8FA10
:10110C0008B900F09BFC00200CB010BD10B58CB0E1
:10111C00044608232C220021684601F019FBE068E4
:10112C0008900023A16860686A46FFF791FA08B935
:10113C0000F084FC00200CB010BD10B50446FFF785
:10114C008BFA6060002010BD01468868496808472A
:10115C002DE9F04106468AB0B568DFF85881002DBC
:10116C0040F08F80FFF73CFAADF800000027FFF746
:10117C003BFAADF8020000240098D8F8E85AC8F8F9
:10118C00E40A2888010403D580F40040002419E007
:10119C00A4B139882A885118398089B2102911D301
:1011AC003D460846B5B1103880B20428A7BF288246
:1011BC0048F21000288840F4004009E01028F1DAC9
:1011CC0001242F46451928880028DBD1002501E091
:1011DC0025F8040BD8F8E40A0090BDF80200FFF7DC
:1011EC0007FABDF80000FFF707FA002D3ED00823E0
:1011FC002422002101A8FFF733FA0020ADF81400D7
:10120C000690079500237168DFF86C0701AAFFF7B9
:10121C002BFA286078BB0820ADF800000C20ADF844
:10122C0002006846D8F8F01A8847FFF7D9F9ADF8EC
:10123C000000FFF7D9F9ADF802000098C8F8E40AED
:10124C00281F01884904490C0180D8F8E81A884203
:10125C0038BFC8F8E80AD8F8E40A0090BDF80200D4
:10126C00FFF7C6F9BDF80000FFF7C6F96FF00300F1
:10127C000AB0BDE8F081F06868603069A860B560BC
:10128C000CE0D8F8DC0A804707462868FFF7F0F92D
:10129C003069A8603846D8F8E01A88477168286821
:1012AC00FFF7EAF92868FFF7EBF900200AB0BDE870
:1012BC00F08100002005002010B50446DFF8B426AC
:1012CC00606812684FF47A71A1FB0001002301F0F1
:1012DC0079FA002902D8B0F1004F02D36FF0020066
:1012EC0010BD60602046BDE8104031E700B581B00C
:1012FC00406818B96FF0020001B000BD0068FFF73C
:10130C00B7F9002001B000BDDFF86816096841602C
:10131C000020704750B50446DFF8580602686FF09D
:10132C000046A6FB020100234FF47A7201F04AFA40
:10133C00002902D8B0F1004F00D330466060002085
:10134C0050BD00002DE9F04F85B00446FFF764F95D
:10135C00FFF70CFA0290002500F0A0FB002818BF44
:10136C000128A84601D0029820B96FF0040005B0FE
:10137C00BDE8F08F606808B9A94618E010F1010FBC
:10138C0008BF4FF0FF3912D0DFF8E82512684FF490
:10139C007A71A1FB0001002301F014FA002902D894
:1013AC00B0F1004F02D36FF0020AD9E08146FFF78B
:1013BC0053F948444FF0010A039000E0814602982B
:1013CC0040684946FFF730F9002800F08D80FFF7A0
:1013DC0023F9FFF7CBF9002873D000F10807FFF7CA
:1013EC00FFF8ADF800000026FFF7FEF8ADF802009C
:1013FC00386840B10646A6F10C000168396000213E
:10140C000160FF21817200980190BDF80600FFF782
:10141C00EFF8BDF80400FFF7EFF8002EA6F10C0072
:10142C004FD00179477906294FF0000A18DA824823
:10143C0001EB410200EB8200B0F870BABBF1000F77
:10144C001CBF4FF6F87083450AD0A3683246394664
:10145C005846984720B1A4F80CB0E781266143E0C8
:10146C00FFF7BEF8ADF80000FFF7BEF8ADF80200CC
:10147C0046F80CAC0DB9354619E04FEA050050F8AA
:10148C000C1C91B150F80C0C50F80C1C69B10846AE
:10149C0050F80C1C49B1084650F80C1C00291EBF12
:1014AC00084650F80C1C0029ECD140F80C6C009844
:1014BC000190BDF80600FFF79BF8BDF80400FFF79C
:1014CC009BF819F1010F18BFB9F1000F4FF0010A89
:1014DC0008F101083FF473AF039EFFF7BDF8301A13
:1014EC0002D08145BFF46AAF029800F10804FFF7FF
:1014FC0077F8ADF80000FFF777F8ADF80200DDB132
:10150C00284650F80C1C99B150F80C0C50F80C1CD7
:10151C0071B1084650F80C1C00291EBF084650F843
:10152C000C1C00291EBF084650F80C1C0029EBD1DE
:10153C00216840F80C1C256000980190BDF806004D
:10154C00FFF756F8BDF80400FFF756F8B8F1000F96
:10155C0006D002984068FFF763F8B8F10108F8D19B
:10156C00504605B0BDE8F08F30B583B00446FFF7A8
:10157C0053F8054600F092FA002818BF012857D0FE
:10158C00FFF72EF8ADF80400FFF72EF8ADF80600C3
:10159C0000212948B0F8702A002A3FD0D0F8742ACC
:1015AC001268AA420DD1A18001980090BDF80200EA
:1015BC00FFF71EF8BDF80000FFF71EF8002003B07F
:1015CC0030BDB0F87C2A012142B3D0F8802A1268D1
:1015DC00AA42E8D0B0F8882A0221FAB1D0F88C2AB5
:1015EC001268AA42DFD0B0F8942A0321B2B1D0F825
:1015FC00982A1268AA42D6D0B0F8A02A04216AB15F
:10160C00D0F8A42A1268AA42CDD0B0F8AC2A052191
:10161C0022B1D0F8B00A0068A842C4D0019800905A
:10162C00BDF80200FEF7E4FFBDF80000FEF7E4FF92
:10163C006FF0040003B030BD2005002030B583B03E
:10164C00044600F02BFA002814BF01286FF00400A8
:10165C0056D0FEF7E1FF0546FEF7C2FFADF80400D9
:10166C00FEF7C2FFC549B1F8702AADF8060000209C
:10167C00002A39D0A3889A4218D100EB400201EB22
:10168C008200D0F8740A0068A8420CBF0120002028
:10169C00A06001980090BDF80200FEF7A9FFBDF80C
:1016AC000000FEF7A9FF002003B030BDB1F87C2A82
:1016BC000120CAB19A42E0D0B1F8882A02209AB12E
:1016CC009A42DAD0B1F8942A03206AB19A42D4D063
:1016DC00B1F8A02A04203AB19A42CED0B1F8AC2A83
:1016EC0005200AB19A42C8D001980090BDF80200BA
:1016FC00FEF77EFFBDF80000FEF77EFF4FF0FF30D7
:10170C0003B030BD8D1900002C1900207F0900009A
:10171C002DE9F04182B00646FEF762FFADF80000FD
:10172C00FEF762FFADF802000027DFF85082009848
:10173C00D8F8EC5AC8F8E40A00242888010403D528
:10174C0080F4004000241AE0ACB139882A88511882
:10175C00398089B2402912D33D460846BDB1403884
:10176C0080B20428A7BFA5F8400048F240002888A2
:10177C0040F4004009E04028F0DA01242F464519D6
:10178C0028880028DAD1002501E025F8040BD8F8C8
:10179C00E40A0090BDF80200FEF72AFFBDF8000035
:1017AC00FEF72AFF9DB308233C2200212846FEF7B2
:1017BC002BFF307AA8610022708928622946F068D4
:1017CC0028617068FEF724FF0646FEF709FFADF8A6
:1017DC000000FEF709FFADF802000098C8F8E40A13
:1017EC00281F01884904490C0180D8F8E81A88425E
:1017FC0038BFC8F8E80AD8F8E40A0090BDF802002F
:10180C00FEF7F6FEBDF80000FEF7F6FE26B96FF007
:10181C00030002B0BDE8F081002002B0BDE8F08109
:10182C002DE9F04182B00446FEF7DAFEADF8000077
:10183C00FEF7DAFEADF802000027DFF840810098D1
:10184C00D8F8EC6AC8F8E40A00253088010403D5FE
:10185C0080F40040002519E0A5B139883288511870
:10186C00398089B2282911D33E460846B6B12838AA
:10187C0080B20428A7BF308548F22800308840F495
:10188C00004009E02828F1DA01253746861930880E
:10189C000028DBD1002601E026F8040BD8F8E40A76
:1018AC000090BDF80200FEF7A3FEBDF80000FEF7A5
:1018BC00A3FE96B30823242200213046FEF7E4FE53
:1018CC002079012808BF3076A06800223146FEF747
:1018DC0097FEE060FEF784FEADF80000FEF784FE94
:1018EC00ADF802000098C8F8E40A301F01884904DA
:1018FC00490C0180D8F8E81A884238BFC8F8E80AC1
:10190C00D8F8E40A0090BDF80200FEF771FEBDF8AD
:10191C000000FEF771FEE06820B96FF0030002B022
:10192C00BDE8F081002002B0BDE8F08110B504469E
:10193C00A068B0B110F1010F08BF4FF0FF3010D00C
:10194C000C4A12684FF47A71A1FB0001002300F0DD
:10195C0039FF002902D8B0F1004F02D36FF002001A
:10196C0010BD01466068FEF75FFE401E8041C00F4F
:10197C0010BD0000A88A00005511000020050020B1
:10198C004188292902D36FF0010070470FF2080239
:10199C0052F8211008470000A10B0000710C000048
:1019AC00110D00003B0D0000950D0000AF0D000067
:1019BC00050E0000090F0000AD0F0000CB0F00005A
:1019CC001F10000091100000A1100000A7100000D3
:1019DC00B7100000C7100000D9100000EB10000079
:1019EC0047110000C5120000151300002113000060
:1019FC007D0F0000E18200001B84000051130000E9
:101A0C00751500005D110000F91200004B830000F9
:101A1C0085830000D1830000491600005984000022
:101A2C007D8400001D1700002D18000039190000DE
:101A3C006F8400008B84000019110000012000F05D
:101A4C0039BF0000DFF800F013C10110DFF800F01F
:101A5C00D5C00110DFF800F095C00110DFF800F0E0
:101A6C000DA80110DFF800F0BDBE0110DFF800F08A
:101A7C002DBF0110DFF800F0E1B50110DFF800F028
:101A8C0021C10110DFF800F0D5C20110DFF800F021
:101A9C00D9C20110DFF800F0F1C50110DFF8D40055
:101AAC00007D704738B5DFF8D400DFF8CC50006803
:101ABC00EFF3118480F31188A8680021FFF7CAFFA7
:101ACC006969081AA969814238BF002084F311881A
:101ADC0032BD00002DE9F041DFF8A000DFF898409E
:101AEC000768EFF3118887F31188A0680121FFF7CD
:101AFC00B1FF0121A1830021E1836569216822687E
:101B0C00461B801A691A884204D20020A08388F3ED
:101B1C0011882AE088F31188002005E04519361A4F
:101B2C0029460120FFF79AFF8642F7D2EFF311887E
:101B3C0087F31188E18B012903D129460020FFF797
:101B4C008DFFA16910F1010F08BF084603D0801B5F
:101B5C00814238BF08464119FFF784FF01202084D9
:101B6C000020A083256088F31188BDE8F081808A6D
:101B7C0070470000A401002078010020A48A000016
:101B8C00DFF8041009687047A48A000000F098BEC2
:101B9C0080B5002301223421DFF8F00901F04EF961
:101BAC0000B10120C0B202BDDFF8C41A0A680028D7
:101BBC0012BF42F00100500840000860704700005E
:101BCC007047FEE710B582B0042001F06BF90228D3
:101BDC0018BF03280DD1032000901C234FF0405256
:101BEC000021DFF8A80901F006F9BDE81640042031
:101BFC006AE0DFF89C19DFF89C0A09680C18DFF81A
:101C0C009419DFF8940A0968B0FBF1F12046FEF74D
:101C1C0033FD2046BDE81640FEF732BD80B5DFF837
:101C2C0078090078DFF8740901688908890041F0A7
:101C3C000101016001F043F901F0CDF9DFF8601901
:101C4C00002008600220DFF894190968C9688847E9
:101C5C00DFF85C0A016849084900016000F01BFAD2
:101C6C00042000F013F900F0B6BC0000DFF82C1AC9
:101C7C00405C70470022012904D1012807D1DFF80C
:101C8C00600903E0012802D1DFF82C0A0268104633
:101C9C007047DFF8000A00797047000001F024B9A2
:101CAC0010B5DFF83C160968EFF3118481F3118845
:101CBC00DFF8E019C9880120012908BFFFF768FF88
:101CCC0084F3118810BD000030B5DFF81416DFF86E
:101CDC0088390A68EFF3118182F31188B0FA80F227
:101CEC00C2F11F02D25CB0FA80F4C4F11F04551E7D
:101CFC00E55405D1DFF89C29136823EA0000106035
:101D0C0081F3118830BD00002DE9F041FFF738FF59
:101D1C00EFF3118481F31188DFF88019425C531EB4
:101D2C00435444D1DFF87819DFF8788901EB80054A
:101D3C002E786F88300618D5D8F80010096A384606
:101D4C008847D8F80010896A38468847D8F80010B8
:101D5C00096B38468847DFF8501901200860DFF816
:101D6C004C0900688007FAD514E0700606D5DFF838
:101D7C00B01951F82710002088470BE0D8F8001054
:101D8C00896938468847D8F80010496B3846884727
:101D9C000228F8D106F03F003F2818BFFFF7B4FF28
:101DAC00687800F03F003F2818BFFFF7ADFF84F3C1
:101DBC001188BDE8F08110B508B1140001D10320E1
:101DCC0010BD8160C26003610146DFF8E828DFF8CE
:101DDC004C0912681018FFF749FE002010BD0000D6
:101DEC00F8B50446DFF8F804DFF8B0180068EFF334
:101DFC00118580F31188625C531C6354002A3ED118
:101E0C00DFF89C1801EB8407387800F03F003F287E
:101E1C0018BFFFF7E5FF787800F03F003F2818BFA8
:101E2C00FFF7DEFF7E883878DFF87878010613D567
:101E3C003968C969304688473968496A30468847E5
:101E4C003968C96A3046884700F038F8DFF85C0812
:101E5C0000688007FAD512E0400606D5DFF8C018F6
:101E6C0051F826100120884709E039684969304645
:101E7C0088473968496B304688470128F9D185F382
:101E8C0011882046BDE8F24001F0FAB9DFF8501491
:101E9C000A68EFF3118182F31188DFF8F8271368D1
:101EAC0003431360B0FA80F0C0F11F00DFF8A827DD
:101EBC00835C5B1C835481F311887047DFF8E8174F
:101ECC0001200860704700002DE9F04F83B04FF0FF
:101EDC00000800210128C1468A4618BF022412D1ED
:101EEC00DFF8FC03DFF834780268EFF3118082F33B
:101EFC0011883A79012A06BF02223A71012180F336
:101F0C00118809B10624BDE0FEF76AFB00900120A0
:101F1C0000F0E6F8040002D001203871AFE0FFF7C2
:101F2C0095FDDFF828180190C1F80090012000F011
:101F3C00B9FF012804D1002001F082F94FF001080B
:101F4C00DFF8E047DFF8545721688968002088479C
:101F5C0000F0A1F8687C08B14FF00109287C08B1A9
:101F6C0049F00209E87B08B149F00409E87ADFF886
:101F7C00306718B1A16AF08D096B8847A87A18B13F
:101F8C00A16A708D096B8847FFF798FF49F0200014
:101F9C00A16A896988470120FFF706FE3878C007D7
:101FAC0048BF4FF0010A12D4DFF8980701F094F9FA
:101FBC008346BBF1040FF7D000F067F8800880006F
:101FCC0008600321A26CDFF87C0752689047002060
:101FDC0001F08AF900F05FF8A06A806B8047BAF1D3
:101FEC00000F0AD1A26CDFF85C0752685946904783
:101FFC0000F04BF840F0030008600120216889686C
:10200C008847DFF8440700688006FAD5B8F1000F5E
:10201C001CBF012001F014F9A16A496948468847A0
:10202C00A16A496B484688470128F9D1E87A18B16A
:10203C00A16AF08DC96A8847A87A18B1A16A708D17
:10204C00C96A8847FFF73AFF0020FFF7ADFD032070
:10205C003871042000F044F8DFF8F0160120086015
:10206C0000F019F801F04EFA082000F039F8044697
:10207C00012038710198FFF7FDFC01F0CEF90098B2
:10208C00FEF7BAFA2046BDE8FE8FDFF8D006DFF87F
:10209C00CC1600687047DFF8A8060068704700008F
:1020AC0038B58F48DFF874560068EFF3118480F36D
:1020BC001188E888012803D100F06AFF0020E8802D
:1020CC0084F3118831BD000010B5FFF759FDEFF313
:1020DC00118481F31188FFF7D1FC84F3118810BDB2
:1020EC0038B500F02AF80818FFF7ACFC002540B909
:1020FC00204600F008F820B1DFF868060068804739
:10210C000225284632BD70B500F017F80D18284688
:10211C00FFF7B8FC0646B068204206D03169F26879
:10212C0020469047C0B2012806D03046FFF7AEFCDF
:10213C000646AE42EFD1002070BDDFF87815096875
:10214C000446DFF8D805704730BF704770B501F012
:10215C00D5F9DFF840552E6806F00C000C284BD052
:10216C00700727D4FFF79EFC044600210120FFF7DF
:10217C0081FDA0421ED2DFF8C00300684519DFF8CC
:10218C0014040668DFF8D8050068B0FBF6F0211AD5
:10219C002846FEF771FA2846FEF772FA4FF47A7069
:1021AC00B0FBF6F200210120FFF78EFE2846FEF769
:1021BC005FFA23E030071FD4DFF8F404DFF8E444BF
:1021CC00DFF87C55F10601685ABF4908490041F017
:1021DC0001010160DFF88405016841F00301016031
:1021EC00202021688969884728682068806B80478F
:1021FC0001202860286801E0FFF7A6FF01F082F9B2
:10220C00BDE8704001F034B910B50C1801F076F946
:10221C00401E8041C00FDFF860150A68002AFCD010
:10222C00246801220A6008B101F06CF9204610BD47
:10223C0080B50420FFF72AFE0820FFF727FE0E20AA
:10224C00FFF7CEFDDFF82005DFF820150068C0F39E
:10225C00815003280CBF012000200880DFF81005F6
:10226C0002680AB1012002BDDFF8103540221A6065
:10227C000122C2610020486002BD10B5DFF85C137A
:10228C00DFF8F04482B009680968202088470F20E5
:10229C002060072341F61D5060604FF4C07202208D
:1022AC00009000F0C9F8DFF8D80401210160016842
:1022BC008907FCD501212161DFF8B044218801296F
:1022CC0007D1002101610220202100F091F80120AA
:1022DC0004E00121002000F08BF80220606013BDA7
:1022EC00A48A00002DE9F041DFF89804DFF87C4463
:1022FC0082B0016842688A434260016160680028CC
:10230C0004BFBDE8F341FFF7B8BF0128DFF878142C
:10231C001AD10220606008684BF2F52148436188AD
:10232C00000A11B10021618006E0DFF86014096831
:10233C00090210EB11204008DFF854140860000C5F
:10234C004860012088600CE002280FD10868B0F5C5
:10235C00C06F02D10020606045E00321616000F095
:10236C006FF80121BDE8FC41002041E003283DD17C
:10237C00002060600868A0F5C065A06800F0B2F8A5
:10238C000646284600F0AEF886422CDAA6692846A6
:10239C0000F0ACF88019A061E56860697B4E85425D
:1023AC000ED0A769A7F1100000F09CF880462069B8
:1023BC00103800F097F8804502DABFB200970BE0B6
:1023CC00ADB2009508234FF47F423021304600F027
:1023DC0012FD206980B2009012234FF4F802042100
:1023EC00304600F008FDBDE8F3418AE0BDE8F3811A
:1023FC0070B50D46DFF89C4382B0032121600021AB
:10240C00DFF89463316031688907FCD480B20090A6
:10241C000523602200F010F801203060306880073E
:10242C00FCD5A561002020600821DFF85003C160B5
:10243C0001600120206073BD0021544800F0DBBC1A
:10244C0070B50646514C82B030212046FFF7DCFEB9
:10245C00DFF81853C0F30720E86004212046FFF78B
:10246C00D3FEC0F384402861A6F5C060A8602E6935
:10247C0000F03CF88019A861A969E868022909DA1A
:10248C00401E6FF03F039842B8BF184610310BD571
:10249C00002109E01E2908DB401C4028A8BF3F2072
:1024AC0010392029A8BF1F21A9616861082380B2B7
:1024BC0000904FF47F42302100F011F80120009081
:1024CC0011234FF4003200F009F8A86980B2009093
:1024DC0012234FF4F80200F001F873BD04212046DA
:1024EC0000F089BC002848BF4042704700284CBF10
:1024FC006FF00101022101EB4000032190FBF1F090
:10250C00704780B5DFF87802002101600168890707
:10251C00FCD40021016041600120DFF854120860F6
:10252C000E20FFF7F1FB0820FFF7CEFBBDE80240C1
:10253C000420FFF7C9BB0000888A000010B50446D0
:10254C000020D4E90A2347F6906100F03BF90129F9
:10255C0028BF4FF0FF3010BD10B50C4600F0D6FF71
:10256C00011D201AB0F1004F05D8081BB0F1004F27
:10257C0038BF8C4200D20C46DFF820221268526A17
:10258C002146BDE8104001201047000000A00C407F
:10259C008C8A0000A88A00004B2B002004400340CA
:1025AC00401009402DE9F04180460A46D8E90A015D
:1025BC00D8E90C45A0FB026701FB0277A6196F4115
:1025CC00340C002244EA07414046FFF7C5FFC8E936
:1025DC000E67BDE8F0814FF0FF3002BDA001001086
:1025EC00988A0000F8B50546DFF8B801DFF8B86145
:1025FC000068DFF8B871EFF3118480F3118830684C
:10260C0040F0800030600120B96849688847F96A59
:10261C00096A142088472869B0F5802F34BF04213B
:10262C00010CBA68526A012090473A68126823215B
:10263C0000209047B968C96901208847306820F4A8
:10264C00E02040F480303060306840F001003060B1
:10265C0084F31188F1BD0000282B0020DFF8540111
:10266C00036840680022002110185941704700008F
:10267C000C200840DFF82411DFF8240110B509689C
:10268C0044684968012088476069A169BDE8104029
:10269C00084700009C160020A0860100EC250020B5
:1026AC00A8860000B80100102820086028200840E7
:1026BC008C210840908A00009C8A0000F8B50446E2
:1026CC000D46FFF7CBFFD4E90A6732463B4600F0D4
:1026DC0079F83DB1A6FB002306FB013307FB003361
:1026EC00C4E90C23F2BD38B5DFF8BC40DFF8C050AC
:1026FC002068400840002060206840F08000206086
:10270C000120E062E06A2968496801208847696A0B
:10271C00096A14208847E06A31BD00009C1600202D
:10272C00041A00209001001080B500F004F8000C91
:10273C0040EA014002BDDFF8800000688EE700002F
:10274C002C20094000400340141009400C40094063
:10275C0009B9DFF86810FFF79DB900002422084082
:10276C00A08A0000948A0000B43F00506419002035
:10277C0004800C400C400C4000800C402C500C4051
:10278C0034600C4028500C4008400C40102009408C
:10279C003C600C4000400C4038600C408C01001038
:1027AC00E4010020A48A00000020094084010010EC
:1027BC008C01001008200940EC010020A001000051
:1027CC00FEE770471B4213D1094236D12AB1844629
:1027DC00B0FBF2F002FB10C2704700F0A9BEFCD3B4
:1027EC000022002370470B000200002100207047DC
:1027FC00904271EB030CF6D370B5B1FA81F4B3FAD5
:10280C0083F52C1BA340C4F1200532FA05F63343A3
:10281C00A2405FF00046E64002E05B085FEA32024D
:10282C00841A71EB030524BF204629467641F4D364
:10283C0002000B003000002170BD012ACFD970B509
:10284C00140C20D0B1FA81F4B2FA82F5C4F1200450
:10285C006419B4F12006D6D3B2405FF00044F440C2
:10286C00002502E052085FEA3303C61A71EB020E30
:10287C0024BF3046714664416D41F3D302000B0016
:10288C002000290070BD0C46B1FBF2F102FB114592
:10289C002D0445EA1045B5FBF2F402FB145580B249
:1028AC0040EA0545B5FBF2F002FB105240EA044049
:1028BC0070BD00002021090326311820ABBEF9E7BA
:1028CC0010B5DFF86404046814F1010F08BF00248C
:1028DC0000F092FEDFF85414002008600120DFF8AD
:1028EC0050140860DFF84C140860DFF84C040068E2
:1028FC0028B1DFF848040068204600F023F8DFF820
:10290C004004DFF8402401688908890041F0005137
:10291C0041F005010160DFF8300401686FF31B41E1
:10292C0011430160DFF824040168C1F3013101296E
:10293C0007D10168DFF81824114041F4003202601D
:10294C00016010BD2DE9F84F0446DFF80814012092
:10295C000860DFF8040401680029FCD0DFF8FC53A0
:10296C00DFF8FC83C0202860D8F80CA0D8F8081039
:10297C00DFF8F00389075DBFD8F80410090C41F0AB
:10298C00F00172210170DFF8E0130968D8F80C200F
:10299C00C1F304611629A8BF203901EB2271491C2F
:1029AC006FF009029142B8BF114601F01F0141F4CA
:1029BC00F8510183CAF3C061DFF8B00381F0010163
:1029CC000160CAF3806181F00101816014B9DFF804
:1029DC00A0732DE0DFF89C030068C0F383615FEA0D
:1029EC008A32C0F38F2021D44FEA0A4212160AD53C
:1029FC004FF6FF73400804D11846490804BF012163
:102A0C000120521CF6D4012A10DB400040F00100DA
:102A1C00B0F5803F21BF0120490041F00101102990
:102A2C0024BF0F214FF6FF70521EECE740EA01471E
:102A3C0000F064FD401E8041C00FCF4E316800296C
:102A4C00FCD0DFF83893C9F810700121316008B15F
:102A5C0000F058FD0CB9D82008E0C64A106811687F
:102A6C00C0F3870001F0030140EA0120009040F21E
:102A7C00FF3700233A462C21C14800F0BCF91CB1A9
:102A8C00BC48C06A8704BF0C00F038FD401E804172
:102A9C00C00F31680029FCD0C9F8147001213160D5
:102AAC0008B100F02FFD002C0FBFB64FB148406AA3
:102ABC0020F0033700F022FD401E8041C00F31682A
:102ACC000029FCD0C9F80C700121316008B100F06C
:102ADC0019FD0CB9AC4F04E0A648AC49006A01EAF8
:102AEC00000700F00BFD401E8041C00F316800292B
:102AFC00FCD0C9F808700121316008B100F002FD6A
:102B0C000CB9A34F20E09B48806AD8F80830DB074B
:102B1C00C0F30352C0F303410BD4D8F804301F05A3
:102B2C0002EB27721B0482F3040201EB237181F385
:102B3C000401090441EA025182B242EA0107222C43
:102B4C0024BF00F08040074300F0D8FC401E8041B9
:102B5C00C00F31680029FCD0C9F804700121316024
:102B6C0008B100F0CFFC2220222C824F06D3F86B48
:102B7C00000F00F00100400040F020008549087271
:102B8C001120222C05D3F86B400F00F0010040F00F
:102B9C001000202C08724FF0000B07D3B86CC10C3E
:102BAC0001F44071C0F3845040EA010B00F0A6FC24
:102BBC00401E8041C00F31680029FCD0C9F820B0FC
:102BCC000121316008B100F09DFC6020202C06D35F
:102BDC00B86C000D00F00300400040F060006D493F
:102BEC00C8728020222C06D3F86BC00E00F00100B6
:102BFC00C00040F080000870222C4FF47C4006D3BB
:102C0C00F86B400D00F03F00800040F47C406249BE
:102C1C00DFF888B10880202C0AD3B86C0203810A33
:102C2C0002F47C1242EA815100F00F0041EA003BB1
:102C3C0000F064FC401E8041C00F31680029FCD0BC
:102C4C00C9F800B00121316008B100F05BFC5448B8
:102C5C0044210170882181700CB9302105E0F96B99
:102C6C00C90C01F0030141F03001C1704FEA9A50D8
:102C7C0010F0030003D002283CD012D33CE0012119
:102C8C00042000F0EDF843F2BD70E8638620286460
:102C9C0001206864434801680029FCD00020686466
:102CAC002EE0012000F0FEF804462146042000F03E
:102CBC00D7F8042000F0F6F8A042FAD1D8F800308A
:102CCC001802000A81B2E963000C286401206864D0
:102CDC00344801680029FCD0002068644FF0602261
:102CEC00180E314B1B681B68072198474FF4806006
:102CFC00C9F83800032100E00221042000F0B0F8EC
:102D0C00F8692A4900F03F00087047F61800284976
:102D1C0008801049274800680020286008600120BE
:102D2C0025490860BDE8F18F1C13005084046042F3
:102D3C005C600C40082204438001284300012043BE
:102D4C0004400340000039014820034004000940BE
:102D5C00FFFFFCFC101009409402224300600C4061
:102D6C00A83F005056620840B812005000002043A3
:102D7C00FF0F0F005013005000800C4008A00C40B7
:102D8C0000A00C40000088688A766800FFFFFC00F9
:102D9C00273F710041A10C40DCA10C4000803F405A
:102DAC0005A10C4084088C43B40100100BB00C40FE
:102DBC0070B00C402C2009409404604238B5044695
:102DCC000D4600F09BFB401E8041C00F1A490A685B
:102DDC00002AFCD0012D02D0022D02D003E0247871
:102DEC0002E0248800E0246801220A6008B100F0A7
:102DFC0089FB204632BD38B500EB4100102B00F5A5
:102E0C00007402D3103B241D120C0498984040EA25
:102E1C00024500F073FB401E8041C00F06490A6852
:102E2C00002AFCD0256001220A6000281CBFBDE8E6
:102E3C00314000F067BB31BD00800C4038B51D46F9
:102E4C000818102D144602D3103D801C240C0221AE
:102E5C00FFF7B4FF04EA000188B2E84032BD00007D
:102E6C0038B50446E0070D4607D5A8B200900023FC
:102E7C00012200216B48FFF7BEFFA00707D5A8B2BF
:102E8C0000900123022200216648FFF7B4FF60077F
:102E9C0007D5ADB2009502230C2200216148FFF743
:102EAC00AAFF31BD0146042907BF1D234FF0C042C4
:102EBC001C234FF080525B483421FFF7BFBF10B585
:102ECC00594C21688968012088475848016889064F
:102EDC00FCD5216909684020884721698968402010
:102EEC0088471128F9D110BD70B5054600F00EFBCE
:102EFC004F4C6168401A4FF47A714843060C00F04D
:102F0C0085FB2169401A48BF4042711940F6B9321D
:102F1C00914207D2062805DAA068E168814201D304
:102F2C00226852B943494A68D2074FF4FA6016D462
:102F3C000868C0B27D21484308E0081A3E4948435E
:102F4C00000C00EB9000904238BF1046C82801D20C
:102F5C00C82070BDB0F57A6F88BF4FF47A6070BD31
:102F6C0010B582B00120009000232E4C012219468E
:102F7C002046FFF740FF012000900346022200216B
:102F8C002046FFF738FF00F0C1FA2949886013BDCD
:102F9C0080B50120FFF786FF01281AD000230122FB
:102FAC0034212048FFF74AFFA0B12448006880472D
:102FBC0000F0ACFA1E498B680A68C860A2EB92025A
:102FCC00C01A1D4B5843000C0860904238BF104685
:102FDC000860012002BD10B582B0002000900146AF
:102FEC00104C002301222046FFF705FF0020009023
:102FFC000146012302222046FFF7FDFE1C234FF061
:10300C00805234212046FFF719FF10B10B4800689D
:10301C008047074C00F07AFA606000F0F7FA206104
:10302C0013BD000000A00C409001001014100940CA
:10303C00142B0020AC3F005040420F0080000010C9
:10304C00DFF800F00DC30110DFF800F081C60110AD
:10305C00DFF800F095B70110DFF800F08DC2011019
:10306C00DFF800F03DC20110DFF800F009C30110D9
:10307C00DFF800F045C00110DFF800F0D1C70110F7
:10308C00DFF800F067BE0110DFF800F021B301108B
:10309C00DFF800F011C80110DFF800F021C80110B2
:1030AC000C2811D0192814D01D2817D020281AD07C
:1030BC0021281DD0252820D02A2823D02B2826D003
:1030CC002C2829D000207047DFF8E4010068006844
:1030DC007047DFF8DC01006840687047DFF8D0010A
:1030EC00006880687047DFF8C8010068C0687047E6
:1030FC00DFF8BC01006800697047DFF8B4010068B4
:10310C0040697047DFF8A8010068C0697047DFF8B4
:10311C00A0010068006A7047DFF894010068406AFB
:10312C00704700B58BB00A216846FFF789FF0BB0DA
:10313C0000BD00B581B0FEF729FDDFF87801DFF89E
:10314C0078110068884218BF00F034F8DFF86C0181
:10315C00B0F5B26F03D001B05DF804EB2BE001B019
:10316C0000BD00B581B00FF22100FFF76DFFFFF736
:10317C006FFFFFF771FFFFF773FF01B05DF804EB12
:10318C00FFF772BF0000000000B581B0FEF75EFCD7
:10319C00FDF726FA01B05DF804EB0320FFF768BFDA
:1031AC0010B504460320FFF763FF2046BDE810402E
:1031BC00FFF762BFFEE7FEE700B581B0FFF760FFE7
:1031CC00DFF8FC00C06801B05DF804EBFFF75CBFF2
:1031DC00DFF8F010DFF8F00088617047DFF8EC10D2
:1031EC0001280CBF40F2FF700020086000207047DF
:1031FC0030B581B0FDF7F8F9DFF8D4500446E88813
:10320C0020B1FFF7C5FE60B10020E880FFF710F891
:10321C0005461020FEF764FF012D0BD1FFF72DF8AA
:10322C0008E0052105F13000FDF726FA05F1300024
:10323C00FDF726FA204601B0BDE83040FDF7D8B9BD
:10324C0010B5012818D1FFF72DFE012816D0FFF775
:10325C0087FEDFF87C400120E08004F13000FDF7B0
:10326C0007FA052104F13000FDF706FA04F13000ED
:10327C00FDF706FA002010BDFFF7ADFE002010BDD3
:10328C0010B501240E2805D10120FFF70BFE0128F3
:10329C0005D003E0DFF83C10405C00B90024204668
:1032AC0010BD00207047FFF7F3BEFFF7F5BE00001E
:1032BC00F001002098CA01107047282090050000EA
:1032CC00780100204401002000040000000004608C
:1032DC009C160020EC2500200068010701D5042075
:1032EC00704700F003007047F8B505467748784CF6
:1032FC000068800705D50820A071764976480860DB
:10330C00F1BD00F083F9754A1268002112F0030F29
:10331C0018BF0121520748BF41F002010DB141F025
:10332C00040194F90720821A052A02DAA279914243
:10333C0059D0A0F10F0200250023002A1FD402EB64
:10334C0002121312082B28BF07231D46072D28BF76
:10335C000625634E06EB850756F825507F687E1BC5
:10336C00F5B24F0744BFC6F307277D198F0744BF3B
:10337C00C6F307477D19CF0748BF05EB1665584EB6
:10338C0056F82370FEB25FEA417C44BFC7F3072CAA
:10339C0066445FEA817C44BFC7F3074C66445FEA2E
:1033AC00C17C48BF06EB1766A2EB03226A434D4B68
:1033BC001D681B68A1718032092A92412D17C5F135
:1033CC0008053427D243DBB27D436B4306EBD27244
:1033DC00B3FBF2F2B2F5803F28BF4FF6FF7200F359
:1033EC000700A280E07140480068A188206000209E
:1033FC001F2904D21F21A18004E04908401CB1F50B
:10340C00007FFAD20F39090940EAC100314A374925
:10341C000843106000205060F1BD10B534480068BE
:10342C0084B224B300F0F2F8294991F907209042B4
:10343C0005DA6FF07F029042B8BF1046C8718888D9
:10344C00844201D28C8010BD274A12680B68D21AB4
:10345C00921C202A28BF1F22231A520823FA02F496
:10346C002018B0F5803F28BF4FF6FF70888010BD44
:10347C002048006800B9704710B41F498A6802F0F0
:10348C004063B3F1406F1ED04B689B071BD40F4BAE
:10349C001C680968C1F303511C31090114F0050FB4
:1034AC0006D088420FD224F00500186010BC70477B
:1034BC00814208D2100158BF44F00104500158BF9A
:1034CC0044F004041C6010BC70470000000009406C
:1034DC00302B002030100940FDFDA40024220840B0
:1034EC009C130050B43F00500820094000FFA480FA
:1034FC003410094028500940AC3F0050EFF31080C5
:10350C0072B67047EFF3108062B6704738B5FFF7AC
:10351C00F5FF06490C684D68401E8041C00F18BF6E
:10352C00FFF7F0FF280C40EA044032BD08200940A8
:10353C00704700002D480068000C00F007000328BD
:10354C0028BF4FF0FF30704729490968C1F30F318C
:10355C004BF69A1291424FF0FF3001D10020704788
:10356C004BF6BE12914201D1012070474BF620322E
:10357C00914208BF0220704710B41D491D4B0A68C8
:10358C001B680968120FDBB2802B28BF0023C1F324
:10359C000F314BF69A14A1424FF0FF300CD1012A97
:1035AC0008D0032A1DD0072A1DD0082A08BF03F112
:1035BC00160013E00A2011E04BF6BE14A14206D10E
:1035CC00002AF7D0022A09D103F1140006E04BF6C9
:1035DC002034A14204BF002A03F10A0010BC40B2FF
:1035EC0070471420FAE71520F8E7000094120050F9
:1035FC0018130050A010005080B5FFF7A5FF18B9A4
:10360C00FFF7BAFF162800DAFEE701BD0748084AA3
:10361C00816812780068C90352B2A0F54070C913D2
:10362C005043A1EB20108030001270472850094005
:10363C000C130050DFF800F025B10110DFF8280A58
:10364C00B0F8601041F01001A0F86010D0F88400C0
:10365C00FCF7E6BFDFF8100AB0F8601041F020016B
:10366C00A0F86010D0F88400FCF7DABF00B58FB07A
:10367C0008233C2200216846FCF7C6FFDFF88C0DBE
:10368C0000F15001079100234FF4217108916A4613
:10369C00012106910FF2C931FFF7CCFF0FB000BD2D
:1036AC00F0B58BB00820ADF800000120DFF8B01D9C
:1036BC00DFF8B4490968DFF8AC5DADF80200684684
:1036CC008847BDF80400A4F85E000298C4F8840092
:1036DC0004F5AC7001F08AF8C4F8880000230420CB
:1036EC00019000200090DFF8282D0FF6854104F1A1
:1036FC00EC0001F02FF840200190002300200090F6
:10370C00DFF8642D0FF6814104F5887001F022F882
:10371C00802001900023002000902A460FF6814162
:10372C0004F59A7001F016F801F0B2F806211F208A
:10373C0001F098FC01208DF801000DF10102002030
:10374C00ADF80A00012101208DF800000820ADF829
:10375C000800ADF806000020ADF804004FF47A70B4
:10376C00ADF8020040F2053002F066F80DF10A02E5
:10377C00022140F2063002F05FF804F120021C2115
:10378C004FF4427002F058F804F5B272072140F27F
:10379C00073002F051F86A4601214FF4447002F0F0
:1037AC004BF802AA022140F2113002F045F80DF15B
:1037BC000602022140F2123002F03EF801AA022168
:1037CC0040F2133002F038F80DF1020202214FF4EE
:1037DC00457002F031F804F5B6721521002001F0A5
:1037EC005EFAA021062001F03DFCA021072001F08B
:1037FC0039FCA021082001F035FCA021092001F0A2
:10380C0031FC0020019001AA01208DF803008DF8F5
:10381C000200042100208DF8010001208DF8000029
:10382C004FF4816001F0A1FC0DF1030201214FF472
:10383C00806001F09AFC0DF10202012140F202407D
:10384C0001F093FC0DF10102012140F2034001F063
:10385C008CFC6A46012140F2064001F086FC4FF0D8
:10386C00FF3001F019FA4FF0FF3001F0B1F902F01E
:10387C00CBFD4FF0FF3002F0F7FE01208DF8020077
:10388C0002208DF8010000200FF634318DF8000075
:10389C0005A8B1E8CC10A0E8CC1000200FF634310C
:1038AC00019002A84CC94CC00DF10202012100206C
:1038BC0002F074FF0DF101020121012002F06EFFF4
:1038CC006A460121022002F069FF05AA1421032097
:1038DC0002F064FF0DF106020221042002F05EFFEB
:1038EC0001AA0221052002F059FF02AA0C2108208E
:1038FC0002F054FF04F5C87002F049FF04F5C270E1
:10390C0002F079FA04F5C47001F0CEF8B4F85E0058
:10391C00C0B201F0C6F8B4F85E00C0B201F08DF987
:10392C00204603F0BBF8DFF8E40B206121460320AE
:10393C002076002003F0A9F8A06604F19C0104F1A4
:10394C00C40003F002FA2067DFF8C41B03F0C9FAC5
:10395C00206FDFF8C02B4FF4E02103F0D2FA206F78
:10396C00DFF8B42B4FF0C05103F0CBFA04F1B401E3
:10397C0004F1D00003F0E9F96067DFF8A01B03F055
:10398C00B0FA606FDFF8982B4FF4E02103F0B9FA2E
:10399C00606FDFF8902B4FF0C05103F0B2FA606FFC
:1039AC0001220C2103F076FA206F0022082103F08B
:1039BC0071FA206F0122082103F06CFA206F0122AA
:1039CC00032103F067FA206F0022032103F062FA4F
:1039DC000020A0640A20E06304F1DC00206404F100
:1039EC007800606404F1700003F02AFB04F16800B5
:1039FC0003F00FFB04F1700104F1DC0003F0E6FAB4
:103A0C00A06E03F03FF8204603F048F80320207620
:103A1C0025612146002003F038F8A066182084F8B0
:103A2C005000382084F8510004F1500000F0F2FCF2
:103A3C00102084F85000602084F8510004F15000EC
:103A4C0000F0E8FC0D2084F85000012084F85100AF
:103A5C0004F1500000F0DEFC0BB0F0BD00000000E3
:103A6C002DE9F04F87B0FFF71BFEDFF8BC8ADFF8BB
:103A7C004899DFF8F8A5DFF8E879DFF8EC4501E0C4
:103A8C00A4F864000820ADF800000A20ADF802008C
:103A9C004FF0FF300190684639688847002840F0A5
:103AAC00B1800820ADF80C000920ADF80E0003A879
:103ABC0039688847BDF81220059E002840F08E809A
:103ACC00BDF810000125102804BFB4F85E108A421E
:103ADC006CD130884FF6FF7290423CD1B078000721
:103AEC0064D5D4F88C00002860D094F85910491C87
:103AFC0084F8591000F108020179408801F0A0F80F
:103B0C00162818BF0428834650D0D4F88C00B4F87B
:103B1C005E1040880022C9B201F078FDD4F88C0008
:103B2C00002843D0BBF1000F03D00179083001F01D
:103B3C00A3FB0820ADF800000320ADF80200D4F878
:103B4C008C0039680190684688470020C4F88C00C6
:103B5C0084F859002AE03078B02827D170781628DC
:103B6C001FD170880822C9B201F050FDC8B9D4F831
:103B7C008C0090B10179083001F07EFB0820ADF883
:103B8C0000000320ADF80200D4F88C0039680190D5
:103B9C0068468847002084F85900C4F88C600025DA
:103BAC0004E0317906F1080001F066FBB6B1ADB165
:103BBC000820ADF800000320ADF80200019609E0E2
:103BCC00A87800F059F90820ADF800000520ADF8F0
:103BDC000200019568463968884700BFD4F8880010
:103BEC00FDF730FF70B9D4F8880000F032FE050004
:103BFC00F4D028880128E3D00228E4D1A87800F07A
:103C0C0037FAE0E7B4F86000410731D54FF6FB71A5
:103C1C000840A4F8600094F8550020B304F1EC00BF
:103C2C0000F0BBFD94F85500401E84F8550094F844
:103C3C00580006280AD194F85600401C84F8560007
:103C4C00C0B2032814DB002084F8560094F85A20E4
:103C5C00606F0C2103F01EF994F85A0080F00100FB
:103C6C0084F85A0004E0606F01220C2103F012F971
:103C7C00B4F86000C1062FD54FF6EF710840A4F8D8
:103C8C0060000022206F072103F004F90020A064DB
:103C9C0004F13C010A20E06304F1DC00206404F12F
:103CAC0078006064A06E02F0FEFE206F01220721F6
:103CBC0003F0F0F894F85700B4F85C10401C84F84A
:103CCC00570049B1C0B2884206D3002084F857008F
:103CDC0004F1780003F0D6F9B4F86000810616D52B
:103CEC004FF6DF710840A4F8600094F8550018B93D
:103CFC0004F1EC0000F051FD782084F8550002AA84
:103D0C0002208DF808000121012002F047FDB4F8D3
:103D1C00600041063DD54FF6BF710840A4F8600025
:103D2C0004F5887000F039FD514604F1900003F061
:103D3C000CF8E0669020D9F8141109688847D9F876
:103D4C0000000C2103F048FB00220321092003F0A2
:103D5C0093FB0420FEF79AF8DFF860160020086049
:103D6C00D8F800000028FBD103F0AEFBA4F86200E9
:103D7C000120C8F828000420FDF7A6FF03F066FB1D
:103D8C00E06E03F06FF804F162020221052002F0EC
:103D9C0005FDB4F8600001067FF574AE4FF67F7137
:103DAC000840A4F8600004F59A7000F0F6FC514647
:103DBC0004F1900002F0C9FFE0669020D9F81411CC
:103DCC0009688847D9F800000B2103F005FB002295
:103DDC000321092003F050FB0420FEF757F8DFF80D
:103DEC00DC150020086000BFD8F800000028FBD1CB
:103DFC0003F06AFBA4F864000120C8F82800042032
:103E0C00FDF762FF03F022FBE06E03F02BF8B4F831
:103E1C006400B0F5156FC8BF00203FF731AE40F617
:103E2C00D3018842A8BF0120BFF62AAE40F6940108
:103E3C008842ACBF0220032022E610B584B00446B1
:103E4C000820ADF800000420DFF81416ADF80200CD
:103E5C00019068460968884758B9029A4AB101200E
:103E6C00108094708048D0F88410D0F8880000F04E
:103E7C00C4FC04B010BD000030B50446401E05283B
:103E8C0085B000F2CD80DFE800F003CBCBA2B06CA4
:103E9C0069464FF4417001F09EFE9DF800009DF8BC
:103EAC000110714D8DF8080002AA02A841709DF80E
:103EBC000210817000210171C1709DF805108DF800
:103ECC000F109DF804108DF80E109DF80310417121
:103EDC000020082102F0A0FA9DF8010000F00F026A
:103EEC0000F00F010A2AB4BF30313731000985F8D0
:103EFC002B100A28B4BF3030373085F82A0005F172
:103F0C0020029DF800109DF8000001F00F0100F058
:103F1C000F000A29B4BF3030373085F82D009DF8DA
:103F2C00000000090A28B4BF3030373085F82C0067
:103F3C001C214FF4427001F07FFC782085F855006D
:103F4C0005F1EC0000F029FC05F5887000F025FC6B
:103F5C0005F59A7000F021FC434880F8584005B0F4
:103F6C0030BD694640F2153001F035FE3E4D7820EB
:103F7C0085F8550005F1EC0000F00FFC05F5887094
:103F8C0000F00BFC05F59A7000F007FC0020A8640B
:103F9C000A20E86305F1DC00286405F17800686408
:103FAC0005F1700003F04CF805F1680003F031F8EE
:103FBC0005F1700105F1DC0003F008F805F1700063
:103FCC0000F081FA284880F8584005B030BD264DE5
:103FDC0005F1EC0000F008FC05F5887000F004FC1D
:103FEC0005F59A7000F000FC00E01F4DD5F88C0030
:103FFC00B0B10179083001F03FF90820ADF80000AC
:10400C000320ADF80200DFF85814D5F88C000968CD
:10401C000190684688470020C5F88C0085F8590047
:10402C00114880F8584005B030BD10B584B0044636
:10403C000820ADF800000420DFF8E416ADF802000B
:10404C00019068460968884758B9029A4AB102201B
:10405C00108094700448D0F88410D0F8880000F0D8
:10406C00CCFB04B010BD000004120020344700004B
:10407C002DE9F04F85B001A90022002300241CC1BA
:10408C00082800F27281DFE810F009007001FB00D3
:10409C007001700170017001700103010DF10101DB
:1040AC00002002F013FC9DF8010078B3012828D001
:1040BC00022828D0032828D080282CD0812832D060
:1040CC00832838D084283ED0852844D086284AD0EE
:1040DC00872850D0882856D089285CD08A2863D06D
:1040EC008B2868D08C286FD08D2871D08E2878D0F2
:1040FC008F2800F08580902800F0A48005B0BDE8E2
:10410C00F08F052002E0072000E00B2001F054FAAC
:10411C0005B0BDE8F08FDFF80C160120A1F85C00AB
:10412C0005B0BDE8F08FDFF8FC150220A1F85C00AB
:10413C0005B0BDE8F08FDFF8EC150420A1F85C00A9
:10414C0005B0BDE8F08FDFF8DC150820A1F85C00A5
:10415C0005B0BDE8F08FDFF8CC151020A1F85C009D
:10416C0005B0BDE8F08FDFF8BC152020A1F85C008D
:10417C0005B0BDE8F08FDFF8AC154020A1F85C006D
:10418C0005B0BDE8F08FDFF89C158020A1F85C002D
:10419C0005B0BDE8F08FDFF88C154FF48070A1F8F6
:1041AC005C0005B0BDE8F08FDFF87815A1F85C4035
:1041BC0005B0BDE8F08FDFF86C75786F01220C212B
:1041CC0002F068FE002214E0DFF8587500220BE0C4
:1041DC00DFF85075786F00220C2102F05BFE002294
:1041EC0007E0DFF840750122786F0C2102F052FED7
:1041FC000122786F0D2102F04DFE05B0BDE8F08F65
:10420C00DFF82075386F0022082102F043FEB86EEB
:10421C0002F038FC384602F041FC924838613946CD
:10422C0003203876002002F030FCB86687F8514045
:10423C000F2087F8500007F1520000F017F907F132
:10424C00520216E0DFF8DC74B86E02F01BFC384644
:10425C0002F024FC8348386139460320387600206C
:10426C0002F013FCB86607F1E80000F05FF907F103
:10427C00E8020221042002F091FA05B0BDE8F08FAB
:10428C000DF10101022002F021FB05B0BDE8F08F19
:10429C0001A9082002F01AFB01AD0124AE7A802E90
:1042AC0046DBDFF88074DFF810810FF27C41DFF819
:1042BC0078A2DFF808B107F1900002F046FDF8662D
:1042CC009020D8F8141109688847D8F800000C2100
:1042DC0003F082F800220321092003F0CDF800241A
:1042EC000DF104084FF005090420FDF7CFFDCBF8C4
:1042FC00004000BFDAF800000028FBD103F0E4F81E
:10430C000121CAF8281008F8010B0004000EB9F1BD
:10431C00010908F8010BE7D10420FDF7D5FC03F0E7
:10432C0095F8F86E02F09EFD86F0FF00401CA87216
:10433C0001AA0C21802001F02DFA8DF8000020B983
:10434C00002C0CBF0420062003E0002C14BF072017
:10435C0005208DF800006A460121012002F01EFAAA
:10436C0001AA0C21082002F019FA05B0BDE8F08F63
:10437C00DFF8B013B1F860201043A1F86000D1F859
:10438C008400FCF74DB90000DFF89813B1F86020F9
:10439C001043A1F86000D1F88400FCF741B900008B
:1043AC00DFF88013B1F860201043A1F86000D1F859
:1043BC008400FCF735B900008C0000101C900C40F8
:1043CC000102030405060708090A0B0C0D0E0F1059
:1043DC0011121314BB04B304AD04A704A1042300ED
:1043EC0010B5DFF840430021A16420640A2104F1D8
:1043FC007800E163606403F081F8A06E04F13C0185
:10440C0002F051FB84F8540010BD00001021002074
:10441C0090D0030030B5DFF80C5381B00446286F00
:10442C0000220E2102F036FD0020A8642C6402202C
:10443C00E86305F13C0105F152006864002085F841
:10444C00520085F85300A86E02F02DFB85F854003D
:10445C000122286F01B0BDE830400E2102F01ABDD8
:10446C001010002040420F00404B4C0030B5DFF8DC
:10447C00B45281B00446286F00220E2102F00AFDCE
:10448C000020A8646C640220E86305F13C0105F18E
:10449C005000286495F8500040F0800085F85000DA
:1044AC00A86E02F000FB85F854000122286F0E2143
:1044BC0002F0F0FC05F1540201B0BDE830400121DE
:1044CC00012002F06BB910B5DFF85842182084F8BF
:1044DC005000382084F8510004F15000FFF79AFF87
:1044EC00102084F85000602084F8510004F1500032
:1044FC00FFF790FF0D2084F85000012084F8510044
:10450C0004F15000BDE8104084E7000020A1070032
:10451C0049360000040005800400001061360000DC
:10452C000B0005800B00001000078A4330B50446D1
:10453C007C4D81B0FF2085F850000022002085F8CA
:10454C0051000E21286F02F0A5FC0020A86405F193
:10455C003C010220E86305F15000286405F152008B
:10456C00686495F8500040F0800085F85000A86E03
:10457C0002F099FA85F854000122286F0E2102F0FE
:10458C0089FC05F154020121012002F007F91E20DB
:10459C0085F850000022002085F851000E21286F6C
:1045AC0002F078FC0020A86405F13C010220E863CD
:1045BC0005F15000286405F15200686495F850002C
:1045CC0040F0800085F85000A86E02F06CFA85F877
:1045DC0054000122286F0E2102F05CFC05F15402FC
:1045EC000121012002F0DAF8222085F85000002287
:1045FC00002085F851000E21232085F85000286FEB
:10460C0002F048FC0020A86405F13C010220E8639C
:10461C0005F15000286405F15200686495F85000CB
:10462C0040F0800085F85000A86E02F03CFA85F846
:10463C0054000122286F0E2102F02CFC05F15402CB
:10464C000121012002F0AAF895F8530020700022F5
:10465C00242085F850000E21002085F851002520DB
:10466C0085F85000286F02F015FC0020A86405F1B5
:10467C003C010220E86305F15000286405F152006A
:10468C00686495F8500040F0800085F85000A86EE2
:10469C0002F009FA85F8540001220E21286F02F06D
:1046AC00F9FB05F154020121012002F077F895F88D
:1046BC00530060700022262085F850000E21002047
:1046CC0085F85100272085F85000286F02F0E2FB96
:1046DC000020A86405F13C010220E86305F15000BC
:1046EC00286405F15200686495F8500040F0800091
:1046FC0085F85000A86E02F0D6F985F85400012216
:10470C00286F0E2102F0C6FB05F154020121012095
:10471C0002F044F895F85300A07001B030BD0000D1
:10472C001010002004120020090000A00A0000A0B4
:10473C00FF000000DFF800F079B50110DFF800F0A1
:10474C00F5B80110DFF800F0B5C10110DFF800F08A
:10475C00A9C10110F0B589B004460D4616461F4696
:10476C000823242200216846FBF77AFF0F98069055
:10477C006B46454801684FF47A70B0FBF1F0784312
:10478C000590B6FBF1F20E98ADF8100029462046C4
:10479C00FFF7D0FF204609B0F0BDFBF771BF30B575
:1047AC0081B004460D46FDF7E2F910B12046FBF747
:1047BC005FFF354909684FF47A70B0FBF1F000FBEC
:1047CC0005F12046FBF758FF204601B0BDE830400C
:1047DC00FBF756BF00B581B0FDF7C9F9401E80410B
:1047EC00C043C00F01B000BDFBF742BF10B504467B
:1047FC000021FFF7A3FF204610BDF0B585B005469C
:10480C000820ADF808000420ADF80A000C201F4F5A
:10481C0003900E463968144602A8884760B904997B
:10482C0051B18C602846FFF78DFF16B13046FBF76F
:10483C00F7FE012005B0F0BD0820ADF80000052002
:10484C00ADF802000194684639688847002005B02D
:10485C00F0BD10B582B00446FDF7F4F888B92046D7
:10486C00FFF774FF08218468ADF800100190052152
:10487C00ADF802106846054909688847204602B021
:10488C0010BD002002B010BDA88A0000101000203E
:10489C007047000000B583B00821ADF800100190FE
:1048AC000321ADF802106846DFF840150968884707
:1048BC0003B000BD00B583B00820ADF800001A208D
:1048CC00DFF828150968ADF802006846884700280B
:1048DC000CBFBDF80400FF2003B000BD70B588B05C
:1048EC0004460820ADF800002020ADF8020010208E
:1048FC00DFF8F864ADF804000D4631686846884767
:10490C0028B9029818B16FF0040008B070BD0820E7
:10491C00ADF80C001920ADF80E004FF0FF300490EC
:10492C00059403A8316888470799296008B070BDC1
:10493C0010B586B01446CA78012A03D18A88DFF8EC
:10494C00B0341A80ADF8080004911020ADF80A00BC
:10495C000220DFF898148DF80C000822ADF8042022
:10496C00ADF8062001A80968884760B9009069462F
:10497C002046FFF7B3FF30B900984478FFF78AFF61
:10498C00204606B010BD48B110F1040F08BF04203A
:10499C0004D010F1030F0CBF0220012006B010BD93
:1049AC0030B585B01446ADF8080004911020ADF870
:1049BC000A000220DFF834148DF80C000822ADF840
:1049CC000420ADF806201D46096801A88847C0B927
:1049DC00009069462046FFF781FF90B90098447813
:1049EC00002C04BFC079A84205D1009881680898B2
:1049FC002A4602F087FD0098FFF74CFF204605B0D1
:104A0C0030BD48B110F1040F08BF042004D010F1E0
:104A1C00030F0CBF0220012005B030BD2DE9F04181
:104A2C0088B080460820ADF800000220ADF80200E6
:104A3C000A20DFF8484401900F4621681646684664
:104A4C00884758BB029D4DB382202870AF80002050
:104A5C00E870AE715020ADF800000020ADF80200F7
:104A6C00ADF8068068462168884700280CBF9DF881
:104A7C000800FF202872FFF71DFFADF81000082179
:104A8C001020ADF81200ADF80C10ADF80E1002208D
:104A9C008DF81400069503A82168884708B0BDE876
:104AAC00F08110220121B9E770B588B006460820C4
:104ABC00ADF810000220ADF812000C20DFF8BC435A
:104ACC002168059004A88847E8B9069DDDB18220CD
:104ADC002870AE600020E8700120A8800420A87126
:104AEC00FFF7E8FEADF8040008211020ADF8060031
:104AFC00ADF80010ADF8021002208DF808000395F7
:104B0C0068462168884708B070BD2DE9F04184B033
:104B1C0004460820ADF800000D460220ADF8020056
:104B2C001420DFF8C81209680190164698466846AA
:104B3C008847C0B9029FB7B1822038700020F87046
:104B4C000120B8801420B8713C72FD603E8287F859
:104B5C001280FFF7AFFEDFF8F8233946FFF7E8FEC7
:104B6C0004B0BDE8F081042004B0BDE8F08170B55C
:104B7C0088B006460820ADF810000220ADF81200EF
:104B8C000A20DFF8F8422168059004A88847E8B9A4
:104B9C00069DDDB1822028702E810020E870012056
:104BAC00A8801520A871FFF785FEADF80400082138
:104BBC001020ADF80600ADF80010ADF80210022080
:104BCC008DF80800039568462168884708B070BDC9
:104BDC000022042199E02DE9F04184B0044608201C
:104BEC00ADF800000D460220ADF802001420DFF8ED
:104BFC00FC11096801901646984668468847C0B96A
:104C0C00029FB7B1822038700020F8700420B88061
:104C1C000220B871BC60BD81BE73C7F81080FFF76D
:104C2C0049FEDFF830243946FFF782FE04B0BDE8B8
:104C3C00F081042004B0BDE8F08110220221EDE6E1
:104C4C00F0B583B004460820ADF800000D460220F4
:104C5C00ADF802001020DFF8941109680190164697
:104C6C0068468847A8B9029F9FB1822038703C8162
:104C7C000020F870BD720220B880FE601520B8715B
:104C8C00FFF718FEDFF888243946FFF751FE03B012
:104C9C00F0BD042003B0F0BD0022032135E000B5C7
:104CAC0083B00FF21503019306230093032300F046
:104CBC0054F803B000BD00001078802802BF508863
:104CCC0040F27F61884207D19088032804BF907915
:104CDC00062801D1012070470020704710788028E9
:104CEC0002BF508840F27F6188420CD19088032823
:104CFC0018BF042807D1907900281CBF1028112850
:104D0C0001D10120704700207047F0B583B00446F4
:104D1C000820ADF800000D460220ADF802000C2072
:104D2C00DFF8C8100968019016466846884788B9AC
:104D3C00029F7FB182203870BD800020F870BE7158
:104D4C00BC60FFF7B7FDDFF878243946FFF7F0FDBC
:104D5C0003B0F0BD042003B0F0BD2DE9F04184B0E8
:104D6C0004460820ADF800000D460220ADF8020004
:104D7C001020DFF80811096801901646984668461D
:104D8C008847A8B9029F9FB1822038700020F87024
:104D9C00A7F804800A98B8713C817D81FE60FFF70A
:104DAC0089FD0B9A3946FFF7C3FD04B0BDE8F081CD
:104DBC00042004B0BDE8F08170B582B004460D4605
:104DCC001646FFF777FD1B210091C3B232462946E8
:104DDC00204600F0F9F902B070BD10B582B01D2468
:104DEC00009400F0F1F902B010BD0000101000208A
:104DFC00781A00202DE9F04383B080460820ADF8E6
:104E0C0000000220ADF8020018201C4C01900D4649
:104E1C002168164699466846884758BB029F4FB38F
:104E2C00812038700020F8704FF47E40B880ADF8C7
:104E3C0006805020ADF800000020ADF80200684656
:104E4C002168884700280CBF9DF80800FF203872A5
:104E5C007D72BE72C7F80C900A9838610B98786115
:104E6C00FFF728FDDFF85C233946FFF761FD03B03F
:104E7C00BDE8F083042003B0BDE8F08310100020DF
:104E8C0030B583B004460820ADF800000220ADF820
:104E9C0002001020DFF8DC1309680190684688478F
:104EAC00A0B9029D95B181202870AC600020E870FB
:104EBC004FF61160A8800020E860FFF7FBFCDFF8DC
:104ECC00CC232946FFF734FD03B030BD042003B0DA
:104EDC0030BD2DE9F04184B080460820ADF80000CB
:104EEC000220ADF802000E20DFF8884301900D4639
:104EFC00216816466846884728BB029F1FB381204D
:104F0C0038700020F8704FF60A60B880ADF8068053
:104F1C005020ADF800000020ADF802006846216872
:104F2C00884700280CBF9DF80800FF2038727D814F
:104F3C003E73FFF7BFFCDFF8B4233946FFF7F8FCEC
:104F4C0004B0BDE8F081042004B0BDE8F08100009D
:104F5C004B550000DFF81434062200F0C9B92DE9D6
:104F6C00F04383B080460820ADF800000220ADF875
:104F7C0002001020DFF8FC4201900D462168164615
:104F8C0099466846884738BB029F2FB381203870FA
:104F9C000020F8704FF60760B880ADF806805020FE
:104FAC00ADF800000020ADF8020068462168884783
:104FBC0000280CBF9DF80800FF2038727D72BE726D
:104FCC00C7F80C90FFF776FCDFF8A4233946FFF7FF
:104FDC00AFFC03B0BDE8F083042003B0BDE8F08360
:104FEC0070B584B004460820ADF800000220ADF87E
:104FFC0002001020DFF87C62316801906846884717
:10500C0020BB029D15B3812028700020E8704FF65C
:10501C000860A8805020ADF800000020ADF8020018
:10502C00ADF8064068463168884700280CBF9DF8EB
:10503C000800FF2028720020E860FFF73BFCDFF837
:10504C0034232946FFF774FC04B070BD042004B06F
:10505C0070BD000093550000DFF81C33102200F0E7
:10506C0017B9000070B584B004460820ADF80000F4
:10507C000D460220ADF802000C20DFF8F81109688B
:10508C0001906846884798B9029E8EB18120307095
:10509C0034810020F07075814FF63060B080FFF7DE
:1050AC0009FCDFF8D8223146FFF742FC04B070BD92
:1050BC00042004B070BD30B585B004460020ADF8B6
:1050CC0004000820ADF808000220ADF80A000A2000
:1050DC00DFF8A0110968039002A8884798B9049DCD
:1050EC008DB1812028702C810020E8704FF6316042
:1050FC00A880FFF7DFFB01A900910223DFF88022D3
:10510C002946FFF74DFCBDF8040005B030BD00008A
:10511C006F55000010B586B000208DF804000820F3
:10512C00ADF808000220ADF80A000820DFF84411A1
:10513C000968039002A8884798B9049C8CB1822016
:10514C0020700020E0700120A0801220A071FFF7D9
:10515C00B1FB01A900910123DFF828222146FFF7BA
:10516C001FFC9DF8040006B010BDF0B583B00446DA
:10517C000820ADF800000D460220ADF8020010200A
:10518C00DFF8F01009680190164668468847A0B908
:10519C00029F97B1812038703C810020F8707D818E
:1051AC004FF63660B880FE60FFF784FB0FF23132A9
:1051BC003946FFF7BDFB03B0F0BD042003B0F0BDD2
:1051CC00E94C0000955300002DE9F04383B00546EF
:1051DC000820ADF800000220ADF802001420254C88
:1051EC0001900E462168914698466846884750BB08
:1051FC00029F47B3812038700020F8700A9840F461
:10520C007D4040F08000B8803D8187F81090FE60B2
:10521C005020ADF80000ADF806800020ADF802007B
:10522C0068462168884700280CBF9DF80800FF20BD
:10523C007874FFF73FFB0FF2CD223946FFF778FB6E
:10524C0003B0BDE8F083042003B0BDE8F08330B5B3
:10525C001446DFF8582381B015682A0007D0009354
:10526C0002460B4621460120A84701B030BD002064
:10527C0001B030BD10100020DFF8342313681A0081
:10528C0003D00A460146012018477047B553000069
:10529C002DE9F04184B004460820ADF800000D461D
:1052AC000220ADF802000C20DFF808130968019009
:1052BC00164698466846884798B9029F8FB1812058
:1052CC0038700020F87046F47E40B8803C81BD7286
:1052DC00FFF7F0FA42463946FFF72AFB04B0BDE867
:1052EC00F081042004B0BDE8F0810000D753000029
:1052FC002DE9F04383B004460820ADF800000220ED
:10530C00ADF802001020DFF8AC7201900D46396840
:10531C00914698466846884718BB029E0EB381207A
:10532C0030700020F07049F47E40B0805020ADF811
:10533C0000000020ADF80200ADF806406846396860
:10534C00884700280CBF9DF80800FF203072F560DC
:10535C00FFF7B0FA42463146FFF7EAFA03B0BDE870
:10536C00F083042003B0BDE8F0830000F953000083
:10537C001B5400003D5400005F5400008154000099
:10538C00A3540000C55400001078802802BF508838
:10539C0040F27F61884204BF9088B0F57E4F01D106
:1053AC0001207047002070471078802802BF508879
:1053BC0040F27F61884202BF90884FF611618842AB
:1053CC0001D101207047002070471078802802BF5F
:1053DC00508840F27F61884202BF90884FF60A6184
:1053EC00884201D101207047002070471078802836
:1053FC0002BF508840F27F61884202BF90884FF60E
:10540C000661884201D10120704700207047107856
:10541C00802802BF508840F27F61884202BF90888A
:10542C004FF60761884201D1012070470020704778
:10543C001078802802BF508840F27F61884202BFFA
:10544C0090884FF60861884201D1012070470020F6
:10545C0070471078802802BF508840F27F618842E4
:10546C0002BF90884FF61061884201D1012070472D
:10547C00002070471078802802BF508840F27F616E
:10548C00884202BF90884FF63061884201D10120DA
:10549C007047002070471078802802BF508840F277
:1054AC007F61884202BF90884FF63161884201D1FA
:1054BC0001207047002070471078802802BF508868
:1054CC0040F27F61884207D19088012804BF90790F
:1054DC00122801D101207047002070470000000005
:1054EC001078802802BF508840F27F61884202BF4A
:1054FC0090884FF63661884201D101207047002018
:10550C00704700001078802802BF518840F27F63FA
:10551C00994202BF91884FF69D5399420BD0802837
:10552C0002BF508840F27F61884202BF90884FF6DC
:10553C009B51884201D101207047002070471078A0
:10554C00802802BF508840F27F61884207D1908842
:10555C00012804BF9079142801D101207047002044
:10556C0070471078802802BF508840F27F618842D3
:10557C0007D19088022804BF9079152801D1012009
:10558C007047002070471078802802BF508840F286
:10559C007F61884207D19088042804BF9079022843
:1055AC0001D101207047002070470000382B0020EB
:1055BC003C2B00201010002030B583B0044608208E
:1055CC00ADF800000220ADF802000E20DFF800114B
:1055DC000968019068468847A8B9029D9DB1812051
:1055EC0028702C810120E8704FF60140A880002023
:1055FC006881A881FFF75EF90FF2D9022946FFF7FF
:10560C0097F903B030BD042003B030BDF0B583B0C2
:10561C0004465020ADF80000ADF8061000202C4ECA
:10562C003168ADF8020015466846884700280CBF63
:10563C009DF80870FF270820ADF800000220ADF897
:10564C0002000E200190684631688847A0B9029E7E
:10565C0096B18120307034810120F07077814FF643
:10566C001840B080B581FFF725F90FF28D02314655
:10567C00FFF75EF903B0F0BD042003B0F0BD30B508
:10568C0083B004460820ADF800000220ADF80200FB
:10569C000E200F490968019068468847A8B9029DF9
:1056AC009DB1812028702C810120E8704FF61C40A0
:1056BC00A88000206881A881FFF7FCF80FF25D023A
:1056CC002946FFF735F903B030BD042003B030BDD7
:1056DC00101000201078802802BF508840F27F61A3
:1056EC00884202BF90884FF60141884201D10120C7
:1056FC0070470020704700001078802802BF508847
:10570C0040F27F61884202BF90884FF61841884270
:10571C0001D10120704700207047000010788028CC
:10572C0002BF508840F27F61884202BF90884FF6DA
:10573C001C41884201D101207047002070470000B5
:10574C00F0B583B004460820ADF800000D460220E9
:10575C00ADF80200102037490968019016466846DA
:10576C008847A0B9029F97B1812038703C72002005
:10577C00F8707D724FF68160B880FE60FFF79AF882
:10578C000FF269023946FFF7D3F803B0F0BD0420DD
:10579C0003B0F0BDF0B583B004460820ADF80000AE
:1057AC000D460220ADF80200102022490968019034
:1057BC00164668468847A0B9029F97B18120387079
:1057CC003C720020F8707D724FF68260B880FE60EB
:1057DC00FFF770F80FF239023946FFF7A9F803B05A
:1057EC00F0BD042003B0F0BD00000000107880284C
:1057FC0002BF508840F27F61884202BF90884FF60A
:10580C008161884201D1012070470020704700005F
:10581C001078802802BF508840F27F61884202BF16
:10582C0090884FF68261884201D101207047002098
:10583C007047000010100020F0B517460E460025EA
:10584C0040F20132811A83B032D0491E38D0491E41
:10585C003ED0891E46D0491E00F09B80491E00F0A8
:10586C00A280491E00F0BC80491E00F0D680491E63
:10587C0000F0E080491E00F0EA80491E00F0F38041
:10588C00491E00F0FD80C91E00F00781491E00F082
:10589C001181491E00F01C81491E00F02781491E10
:1058AC0000F03081491F00F03C81891E39D083E122
:1058BC00102E40F07D8110223946DFF82C0BCDE004
:1058CC00102E40F0758110223946DFF8200BC5E010
:1058DC00042E40F06D813868DFF8141BC86228462E
:1058EC0003B0F0BD012E40F06381DFF8044B20794A
:1058FC0001284AD0E0783978E17048B1002940F0AD
:10590C0067816078022822D0052840F061811EE072
:10591C00002900F05D81607801282CD0042826D164
:10592C0029E0012E40F04481DFF8C44AE0780128D8
:10593C002BD020793978217180B1002940F0488131
:10594C00607803281CBF0728052840F04181208A75
:10595C00C0B2FFF745FB284603B0F0BD002900F0AC
:10596C003781607801281CBF0428062803D0607892
:10597C00052840F02D81608A40F001006082A06A09
:10598C00FAF74EFE284603B0F0BD1225284603B0A8
:10599C00F0BD022E40F00C813888DFF8541A888252
:1059AC00284603B0F0BD202E80F20281DFF8404A79
:1059BC001F2104F1CC0001F0E1FD3246394604F11F
:1059CC00CC0001F09FFD208A667104F1CC033246B5
:1059DC000121C0B2FFF7C3FA0546284603B0F0BD5B
:1059EC00202E80F2E580DFF8084A1F2104F1EC003C
:1059FC0001F0C4FD3246394604F1EC0001F082FDA1
:105A0C00208AA67104F1EC0332460021C0B2FFF7E4
:105A1C00A6FA0546284603B0F0BD012E40F0C8801A
:105A2C003878052880F2C480DFF8C419C87128467C
:105A3C0003B0F0BD012E40F0BB803878042880F212
:105A4C00B780DFF8AC190872284603B0F0BD062EFB
